{
  "contracts/SchoolManager.sol": {
    "SchoolManager": {
      "abi": [
        {
          "inputs": [],
          "stateMutability": "nonpayable",
          "type": "constructor"
        },
        {
          "anonymous": false,
          "inputs": [
            {
              "indexed": false,
              "internalType": "string",
              "name": "name",
              "type": "string"
            },
            {
              "indexed": false,
              "internalType": "uint256",
              "name": "rollNumber",
              "type": "uint256"
            },
            {
              "indexed": false,
              "internalType": "uint256",
              "name": "rollDate",
              "type": "uint256"
            }
          ],
          "name": "StudentRegistered",
          "type": "event"
        },
        {
          "anonymous": false,
          "inputs": [
            {
              "indexed": false,
              "internalType": "uint256",
              "name": "",
              "type": "uint256"
            }
          ],
          "name": "studentRemoved",
          "type": "event"
        },
        {
          "inputs": [],
          "name": "admin",
          "outputs": [
            {
              "internalType": "address",
              "name": "",
              "type": "address"
            }
          ],
          "stateMutability": "view",
          "type": "function"
        },
        {
          "inputs": [
            {
              "internalType": "uint256",
              "name": "rollNumber",
              "type": "uint256"
            }
          ],
          "name": "getStudentById",
          "outputs": [
            {
              "components": [
                {
                  "internalType": "string",
                  "name": "name",
                  "type": "string"
                },
                {
                  "internalType": "uint256",
                  "name": "rollNumber",
                  "type": "uint256"
                },
                {
                  "internalType": "uint256",
                  "name": "rollDate",
                  "type": "uint256"
                }
              ],
              "internalType": "struct SchoolManager.Student",
              "name": "",
              "type": "tuple"
            }
          ],
          "stateMutability": "view",
          "type": "function"
        },
        {
          "inputs": [
            {
              "internalType": "string",
              "name": "studentName",
              "type": "string"
            },
            {
              "internalType": "uint256",
              "name": "rollNumber",
              "type": "uint256"
            }
          ],
          "name": "registerStudent",
          "outputs": [],
          "stateMutability": "nonpayable",
          "type": "function"
        },
        {
          "inputs": [
            {
              "internalType": "uint256",
              "name": "rollNumber",
              "type": "uint256"
            }
          ],
          "name": "removeStudent",
          "outputs": [],
          "stateMutability": "nonpayable",
          "type": "function"
        },
        {
          "inputs": [
            {
              "internalType": "uint256",
              "name": "",
              "type": "uint256"
            }
          ],
          "name": "students",
          "outputs": [
            {
              "internalType": "string",
              "name": "name",
              "type": "string"
            },
            {
              "internalType": "uint256",
              "name": "rollNumber",
              "type": "uint256"
            },
            {
              "internalType": "uint256",
              "name": "rollDate",
              "type": "uint256"
            }
          ],
          "stateMutability": "view",
          "type": "function"
        }
      ],
      "evm": {
        "bytecode": {
          "linkReferences": {},
          "object": "6080604052348015600f57600080fd5b50336000806101000a81548173ffffffffffffffffffffffffffffffffffffffff021916908373ffffffffffffffffffffffffffffffffffffffff160217905550610fe88061005f6000396000f3fe608060405234801561001057600080fd5b50600436106100575760003560e01c806306ead22e1461005c57806312a0b7441461008e5780636af83845146100aa578063c8fb0793146100c6578063f851a440146100f6575b600080fd5b610076600480360381019061007191906106fb565b610114565b604051610085939291906107c7565b60405180910390f35b6100a860048036038101906100a3919061093a565b6101c6565b005b6100c460048036038101906100bf91906106fb565b61038c565b005b6100e060048036038101906100db91906106fb565b6104e3565b6040516100ed9190610a3f565b60405180910390f35b6100fe61060f565b60405161010b9190610aa2565b60405180910390f35b600160205280600052604060002060009150905080600001805461013790610aec565b80601f016020809104026020016040519081016040528092919081815260200182805461016390610aec565b80156101b05780601f10610185576101008083540402835291602001916101b0565b820191906000526020600020905b81548152906001019060200180831161019357829003601f168201915b5050505050908060010154908060020154905083565b60008054906101000a900473ffffffffffffffffffffffffffffffffffffffff1673ffffffffffffffffffffffffffffffffffffffff163373ffffffffffffffffffffffffffffffffffffffff1614610254576040517f08c379a000000000000000000000000000000000000000000000000000000000815260040161024b90610b8f565b60405180910390fd5b8060008111610298576040517f08c379a000000000000000000000000000000000000000000000000000000000815260040161028f90610c21565b60405180910390fd5b60006001600084815260200190815260200160002060010154146102f1576040517f08c379a00000000000000000000000000000000000000000000000000000000081526004016102e890610c8d565b60405180910390fd5b6040518060600160405280848152602001838152602001428152506001600084815260200190815260200160002060008201518160000190816103349190610e59565b5060208201518160010155604082015181600201559050507f076e240f09b33613e093cd7c7cb470424d6710c825e21560bcb17da8ef66863a83834260405161037f939291906107c7565b60405180910390a1505050565b60008054906101000a900473ffffffffffffffffffffffffffffffffffffffff1673ffffffffffffffffffffffffffffffffffffffff163373ffffffffffffffffffffffffffffffffffffffff161461041a576040517f08c379a000000000000000000000000000000000000000000000000000000000815260040161041190610b8f565b60405180910390fd5b6000600160008381526020019081526020016000206001015403610473576040517f08c379a000000000000000000000000000000000000000000000000000000000815260040161046a90610f77565b60405180910390fd5b60016000828152602001908152602001600020600080820160006104979190610633565b6001820160009055600282016000905550507fc7004342c1fadaccae4610bda58430fb2115815a82b8082339add7ed713b307f816040516104d89190610f97565b60405180910390a150565b6104eb610673565b6000600160008481526020019081526020016000206001015403610544576040517f08c379a000000000000000000000000000000000000000000000000000000000815260040161053b90610f77565b60405180910390fd5b6001600083815260200190815260200160002060405180606001604052908160008201805461057290610aec565b80601f016020809104026020016040519081016040528092919081815260200182805461059e90610aec565b80156105eb5780601f106105c0576101008083540402835291602001916105eb565b820191906000526020600020905b8154815290600101906020018083116105ce57829003601f168201915b50505050508152602001600182015481526020016002820154815250509050919050565b60008054906101000a900473ffffffffffffffffffffffffffffffffffffffff1681565b50805461063f90610aec565b6000825580601f106106515750610670565b601f01602090049060005260206000209081019061066f9190610694565b5b50565b60405180606001604052806060815260200160008152602001600081525090565b5b808211156106ad576000816000905550600101610695565b5090565b6000604051905090565b600080fd5b600080fd5b6000819050919050565b6106d8816106c5565b81146106e357600080fd5b50565b6000813590506106f5816106cf565b92915050565b600060208284031215610711576107106106bb565b5b600061071f848285016106e6565b91505092915050565b600081519050919050565b600082825260208201905092915050565b60005b83811015610762578082015181840152602081019050610747565b60008484015250505050565b6000601f19601f8301169050919050565b600061078a82610728565b6107948185610733565b93506107a4818560208601610744565b6107ad8161076e565b840191505092915050565b6107c1816106c5565b82525050565b600060608201905081810360008301526107e1818661077f565b90506107f060208301856107b8565b6107fd60408301846107b8565b949350505050565b600080fd5b600080fd5b7f4e487b7100000000000000000000000000000000000000000000000000000000600052604160045260246000fd5b6108478261076e565b810181811067ffffffffffffffff821117156108665761086561080f565b5b80604052505050565b60006108796106b1565b9050610885828261083e565b919050565b600067ffffffffffffffff8211156108a5576108a461080f565b5b6108ae8261076e565b9050602081019050919050565b82818337600083830152505050565b60006108dd6108d88461088a565b61086f565b9050828152602081018484840111156108f9576108f861080a565b5b6109048482856108bb565b509392505050565b600082601f83011261092157610920610805565b5b81356109318482602086016108ca565b91505092915050565b60008060408385031215610951576109506106bb565b5b600083013567ffffffffffffffff81111561096f5761096e6106c0565b5b61097b8582860161090c565b925050602061098c858286016106e6565b9150509250929050565b600082825260208201905092915050565b60006109b282610728565b6109bc8185610996565b93506109cc818560208601610744565b6109d58161076e565b840191505092915050565b6109e9816106c5565b82525050565b60006060830160008301518482036000860152610a0c82826109a7565b9150506020830151610a2160208601826109e0565b506040830151610a3460408601826109e0565b508091505092915050565b60006020820190508181036000830152610a5981846109ef565b905092915050565b600073ffffffffffffffffffffffffffffffffffffffff82169050919050565b6000610a8c82610a61565b9050919050565b610a9c81610a81565b82525050565b6000602082019050610ab76000830184610a93565b92915050565b7f4e487b7100000000000000000000000000000000000000000000000000000000600052602260045260246000fd5b60006002820490506001821680610b0457607f821691505b602082108103610b1757610b16610abd565b5b50919050565b7f4f6e6c792061646d696e2063616e20726567697374657220612073747564656e60008201527f7400000000000000000000000000000000000000000000000000000000000000602082015250565b6000610b79602183610733565b9150610b8482610b1d565b604082019050919050565b60006020820190508181036000830152610ba881610b6c565b9050919050565b7f526f6c6c206e756d626572206d7573742062652067726561746572207468616e60008201527f2030000000000000000000000000000000000000000000000000000000000000602082015250565b6000610c0b602283610733565b9150610c1682610baf565b604082019050919050565b60006020820190508181036000830152610c3a81610bfe565b9050919050565b7f53747564656e7420616c72656164792072656769737465726564000000000000600082015250565b6000610c77601a83610733565b9150610c8282610c41565b602082019050919050565b60006020820190508181036000830152610ca681610c6a565b9050919050565b60008190508160005260206000209050919050565b60006020601f8301049050919050565b600082821b905092915050565b600060088302610d0f7fffffffffffffffffffffffffffffffffffffffffffffffffffffffffffffffff82610cd2565b610d198683610cd2565b95508019841693508086168417925050509392505050565b6000819050919050565b6000610d56610d51610d4c846106c5565b610d31565b6106c5565b9050919050565b6000819050919050565b610d7083610d3b565b610d84610d7c82610d5d565b848454610cdf565b825550505050565b600090565b610d99610d8c565b610da4818484610d67565b505050565b5b81811015610dc857610dbd600082610d91565b600181019050610daa565b5050565b601f821115610e0d57610dde81610cad565b610de784610cc2565b81016020851015610df6578190505b610e0a610e0285610cc2565b830182610da9565b50505b505050565b600082821c905092915050565b6000610e3060001984600802610e12565b1980831691505092915050565b6000610e498383610e1f565b9150826002028217905092915050565b610e6282610728565b67ffffffffffffffff811115610e7b57610e7a61080f565b5b610e858254610aec565b610e90828285610dcc565b600060209050601f831160018114610ec35760008415610eb1578287015190505b610ebb8582610e3d565b865550610f23565b601f198416610ed186610cad565b60005b82811015610ef957848901518255600182019150602085019450602081019050610ed4565b86831015610f165784890151610f12601f891682610e1f565b8355505b6001600288020188555050505b505050505050565b7f53747564656e74206e6f74207265676973746572656400000000000000000000600082015250565b6000610f61601683610733565b9150610f6c82610f2b565b602082019050919050565b60006020820190508181036000830152610f9081610f54565b9050919050565b6000602082019050610fac60008301846107b8565b9291505056fea264697066735822122035404df39facb81cc019d4c56f38b0f8678a6920a97d545376689685c926c27064736f6c634300081c0033",
          "opcodes": "PUSH1 0x80 PUSH1 0x40 MSTORE CALLVALUE DUP1 ISZERO PUSH1 0xF JUMPI PUSH1 0x0 DUP1 REVERT JUMPDEST POP CALLER PUSH1 0x0 DUP1 PUSH2 0x100 EXP DUP2 SLOAD DUP2 PUSH20 0xFFFFFFFFFFFFFFFFFFFFFFFFFFFFFFFFFFFFFFFF MUL NOT AND SWAP1 DUP4 PUSH20 0xFFFFFFFFFFFFFFFFFFFFFFFFFFFFFFFFFFFFFFFF AND MUL OR SWAP1 SSTORE POP PUSH2 0xFE8 DUP1 PUSH2 0x5F PUSH1 0x0 CODECOPY PUSH1 0x0 RETURN INVALID PUSH1 0x80 PUSH1 0x40 MSTORE CALLVALUE DUP1 ISZERO PUSH2 0x10 JUMPI PUSH1 0x0 DUP1 REVERT JUMPDEST POP PUSH1 0x4 CALLDATASIZE LT PUSH2 0x57 JUMPI PUSH1 0x0 CALLDATALOAD PUSH1 0xE0 SHR DUP1 PUSH4 0x6EAD22E EQ PUSH2 0x5C JUMPI DUP1 PUSH4 0x12A0B744 EQ PUSH2 0x8E JUMPI DUP1 PUSH4 0x6AF83845 EQ PUSH2 0xAA JUMPI DUP1 PUSH4 0xC8FB0793 EQ PUSH2 0xC6 JUMPI DUP1 PUSH4 0xF851A440 EQ PUSH2 0xF6 JUMPI JUMPDEST PUSH1 0x0 DUP1 REVERT JUMPDEST PUSH2 0x76 PUSH1 0x4 DUP1 CALLDATASIZE SUB DUP2 ADD SWAP1 PUSH2 0x71 SWAP2 SWAP1 PUSH2 0x6FB JUMP JUMPDEST PUSH2 0x114 JUMP JUMPDEST PUSH1 0x40 MLOAD PUSH2 0x85 SWAP4 SWAP3 SWAP2 SWAP1 PUSH2 0x7C7 JUMP JUMPDEST PUSH1 0x40 MLOAD DUP1 SWAP2 SUB SWAP1 RETURN JUMPDEST PUSH2 0xA8 PUSH1 0x4 DUP1 CALLDATASIZE SUB DUP2 ADD SWAP1 PUSH2 0xA3 SWAP2 SWAP1 PUSH2 0x93A JUMP JUMPDEST PUSH2 0x1C6 JUMP JUMPDEST STOP JUMPDEST PUSH2 0xC4 PUSH1 0x4 DUP1 CALLDATASIZE SUB DUP2 ADD SWAP1 PUSH2 0xBF SWAP2 SWAP1 PUSH2 0x6FB JUMP JUMPDEST PUSH2 0x38C JUMP JUMPDEST STOP JUMPDEST PUSH2 0xE0 PUSH1 0x4 DUP1 CALLDATASIZE SUB DUP2 ADD SWAP1 PUSH2 0xDB SWAP2 SWAP1 PUSH2 0x6FB JUMP JUMPDEST PUSH2 0x4E3 JUMP JUMPDEST PUSH1 0x40 MLOAD PUSH2 0xED SWAP2 SWAP1 PUSH2 0xA3F JUMP JUMPDEST PUSH1 0x40 MLOAD DUP1 SWAP2 SUB SWAP1 RETURN JUMPDEST PUSH2 0xFE PUSH2 0x60F JUMP JUMPDEST PUSH1 0x40 MLOAD PUSH2 0x10B SWAP2 SWAP1 PUSH2 0xAA2 JUMP JUMPDEST PUSH1 0x40 MLOAD DUP1 SWAP2 SUB SWAP1 RETURN JUMPDEST PUSH1 0x1 PUSH1 0x20 MSTORE DUP1 PUSH1 0x0 MSTORE PUSH1 0x40 PUSH1 0x0 KECCAK256 PUSH1 0x0 SWAP2 POP SWAP1 POP DUP1 PUSH1 0x0 ADD DUP1 SLOAD PUSH2 0x137 SWAP1 PUSH2 0xAEC JUMP JUMPDEST DUP1 PUSH1 0x1F ADD PUSH1 0x20 DUP1 SWAP2 DIV MUL PUSH1 0x20 ADD PUSH1 0x40 MLOAD SWAP1 DUP2 ADD PUSH1 0x40 MSTORE DUP1 SWAP3 SWAP2 SWAP1 DUP2 DUP2 MSTORE PUSH1 0x20 ADD DUP3 DUP1 SLOAD PUSH2 0x163 SWAP1 PUSH2 0xAEC JUMP JUMPDEST DUP1 ISZERO PUSH2 0x1B0 JUMPI DUP1 PUSH1 0x1F LT PUSH2 0x185 JUMPI PUSH2 0x100 DUP1 DUP4 SLOAD DIV MUL DUP4 MSTORE SWAP2 PUSH1 0x20 ADD SWAP2 PUSH2 0x1B0 JUMP JUMPDEST DUP3 ADD SWAP2 SWAP1 PUSH1 0x0 MSTORE PUSH1 0x20 PUSH1 0x0 KECCAK256 SWAP1 JUMPDEST DUP2 SLOAD DUP2 MSTORE SWAP1 PUSH1 0x1 ADD SWAP1 PUSH1 0x20 ADD DUP1 DUP4 GT PUSH2 0x193 JUMPI DUP3 SWAP1 SUB PUSH1 0x1F AND DUP3 ADD SWAP2 JUMPDEST POP POP POP POP POP SWAP1 DUP1 PUSH1 0x1 ADD SLOAD SWAP1 DUP1 PUSH1 0x2 ADD SLOAD SWAP1 POP DUP4 JUMP JUMPDEST PUSH1 0x0 DUP1 SLOAD SWAP1 PUSH2 0x100 EXP SWAP1 DIV PUSH20 0xFFFFFFFFFFFFFFFFFFFFFFFFFFFFFFFFFFFFFFFF AND PUSH20 0xFFFFFFFFFFFFFFFFFFFFFFFFFFFFFFFFFFFFFFFF AND CALLER PUSH20 0xFFFFFFFFFFFFFFFFFFFFFFFFFFFFFFFFFFFFFFFF AND EQ PUSH2 0x254 JUMPI PUSH1 0x40 MLOAD PUSH32 0x8C379A000000000000000000000000000000000000000000000000000000000 DUP2 MSTORE PUSH1 0x4 ADD PUSH2 0x24B SWAP1 PUSH2 0xB8F JUMP JUMPDEST PUSH1 0x40 MLOAD DUP1 SWAP2 SUB SWAP1 REVERT JUMPDEST DUP1 PUSH1 0x0 DUP2 GT PUSH2 0x298 JUMPI PUSH1 0x40 MLOAD PUSH32 0x8C379A000000000000000000000000000000000000000000000000000000000 DUP2 MSTORE PUSH1 0x4 ADD PUSH2 0x28F SWAP1 PUSH2 0xC21 JUMP JUMPDEST PUSH1 0x40 MLOAD DUP1 SWAP2 SUB SWAP1 REVERT JUMPDEST PUSH1 0x0 PUSH1 0x1 PUSH1 0x0 DUP5 DUP2 MSTORE PUSH1 0x20 ADD SWAP1 DUP2 MSTORE PUSH1 0x20 ADD PUSH1 0x0 KECCAK256 PUSH1 0x1 ADD SLOAD EQ PUSH2 0x2F1 JUMPI PUSH1 0x40 MLOAD PUSH32 0x8C379A000000000000000000000000000000000000000000000000000000000 DUP2 MSTORE PUSH1 0x4 ADD PUSH2 0x2E8 SWAP1 PUSH2 0xC8D JUMP JUMPDEST PUSH1 0x40 MLOAD DUP1 SWAP2 SUB SWAP1 REVERT JUMPDEST PUSH1 0x40 MLOAD DUP1 PUSH1 0x60 ADD PUSH1 0x40 MSTORE DUP1 DUP5 DUP2 MSTORE PUSH1 0x20 ADD DUP4 DUP2 MSTORE PUSH1 0x20 ADD TIMESTAMP DUP2 MSTORE POP PUSH1 0x1 PUSH1 0x0 DUP5 DUP2 MSTORE PUSH1 0x20 ADD SWAP1 DUP2 MSTORE PUSH1 0x20 ADD PUSH1 0x0 KECCAK256 PUSH1 0x0 DUP3 ADD MLOAD DUP2 PUSH1 0x0 ADD SWAP1 DUP2 PUSH2 0x334 SWAP2 SWAP1 PUSH2 0xE59 JUMP JUMPDEST POP PUSH1 0x20 DUP3 ADD MLOAD DUP2 PUSH1 0x1 ADD SSTORE PUSH1 0x40 DUP3 ADD MLOAD DUP2 PUSH1 0x2 ADD SSTORE SWAP1 POP POP PUSH32 0x76E240F09B33613E093CD7C7CB470424D6710C825E21560BCB17DA8EF66863A DUP4 DUP4 TIMESTAMP PUSH1 0x40 MLOAD PUSH2 0x37F SWAP4 SWAP3 SWAP2 SWAP1 PUSH2 0x7C7 JUMP JUMPDEST PUSH1 0x40 MLOAD DUP1 SWAP2 SUB SWAP1 LOG1 POP POP POP JUMP JUMPDEST PUSH1 0x0 DUP1 SLOAD SWAP1 PUSH2 0x100 EXP SWAP1 DIV PUSH20 0xFFFFFFFFFFFFFFFFFFFFFFFFFFFFFFFFFFFFFFFF AND PUSH20 0xFFFFFFFFFFFFFFFFFFFFFFFFFFFFFFFFFFFFFFFF AND CALLER PUSH20 0xFFFFFFFFFFFFFFFFFFFFFFFFFFFFFFFFFFFFFFFF AND EQ PUSH2 0x41A JUMPI PUSH1 0x40 MLOAD PUSH32 0x8C379A000000000000000000000000000000000000000000000000000000000 DUP2 MSTORE PUSH1 0x4 ADD PUSH2 0x411 SWAP1 PUSH2 0xB8F JUMP JUMPDEST PUSH1 0x40 MLOAD DUP1 SWAP2 SUB SWAP1 REVERT JUMPDEST PUSH1 0x0 PUSH1 0x1 PUSH1 0x0 DUP4 DUP2 MSTORE PUSH1 0x20 ADD SWAP1 DUP2 MSTORE PUSH1 0x20 ADD PUSH1 0x0 KECCAK256 PUSH1 0x1 ADD SLOAD SUB PUSH2 0x473 JUMPI PUSH1 0x40 MLOAD PUSH32 0x8C379A000000000000000000000000000000000000000000000000000000000 DUP2 MSTORE PUSH1 0x4 ADD PUSH2 0x46A SWAP1 PUSH2 0xF77 JUMP JUMPDEST PUSH1 0x40 MLOAD DUP1 SWAP2 SUB SWAP1 REVERT JUMPDEST PUSH1 0x1 PUSH1 0x0 DUP3 DUP2 MSTORE PUSH1 0x20 ADD SWAP1 DUP2 MSTORE PUSH1 0x20 ADD PUSH1 0x0 KECCAK256 PUSH1 0x0 DUP1 DUP3 ADD PUSH1 0x0 PUSH2 0x497 SWAP2 SWAP1 PUSH2 0x633 JUMP JUMPDEST PUSH1 0x1 DUP3 ADD PUSH1 0x0 SWAP1 SSTORE PUSH1 0x2 DUP3 ADD PUSH1 0x0 SWAP1 SSTORE POP POP PUSH32 0xC7004342C1FADACCAE4610BDA58430FB2115815A82B8082339ADD7ED713B307F DUP2 PUSH1 0x40 MLOAD PUSH2 0x4D8 SWAP2 SWAP1 PUSH2 0xF97 JUMP JUMPDEST PUSH1 0x40 MLOAD DUP1 SWAP2 SUB SWAP1 LOG1 POP JUMP JUMPDEST PUSH2 0x4EB PUSH2 0x673 JUMP JUMPDEST PUSH1 0x0 PUSH1 0x1 PUSH1 0x0 DUP5 DUP2 MSTORE PUSH1 0x20 ADD SWAP1 DUP2 MSTORE PUSH1 0x20 ADD PUSH1 0x0 KECCAK256 PUSH1 0x1 ADD SLOAD SUB PUSH2 0x544 JUMPI PUSH1 0x40 MLOAD PUSH32 0x8C379A000000000000000000000000000000000000000000000000000000000 DUP2 MSTORE PUSH1 0x4 ADD PUSH2 0x53B SWAP1 PUSH2 0xF77 JUMP JUMPDEST PUSH1 0x40 MLOAD DUP1 SWAP2 SUB SWAP1 REVERT JUMPDEST PUSH1 0x1 PUSH1 0x0 DUP4 DUP2 MSTORE PUSH1 0x20 ADD SWAP1 DUP2 MSTORE PUSH1 0x20 ADD PUSH1 0x0 KECCAK256 PUSH1 0x40 MLOAD DUP1 PUSH1 0x60 ADD PUSH1 0x40 MSTORE SWAP1 DUP2 PUSH1 0x0 DUP3 ADD DUP1 SLOAD PUSH2 0x572 SWAP1 PUSH2 0xAEC JUMP JUMPDEST DUP1 PUSH1 0x1F ADD PUSH1 0x20 DUP1 SWAP2 DIV MUL PUSH1 0x20 ADD PUSH1 0x40 MLOAD SWAP1 DUP2 ADD PUSH1 0x40 MSTORE DUP1 SWAP3 SWAP2 SWAP1 DUP2 DUP2 MSTORE PUSH1 0x20 ADD DUP3 DUP1 SLOAD PUSH2 0x59E SWAP1 PUSH2 0xAEC JUMP JUMPDEST DUP1 ISZERO PUSH2 0x5EB JUMPI DUP1 PUSH1 0x1F LT PUSH2 0x5C0 JUMPI PUSH2 0x100 DUP1 DUP4 SLOAD DIV MUL DUP4 MSTORE SWAP2 PUSH1 0x20 ADD SWAP2 PUSH2 0x5EB JUMP JUMPDEST DUP3 ADD SWAP2 SWAP1 PUSH1 0x0 MSTORE PUSH1 0x20 PUSH1 0x0 KECCAK256 SWAP1 JUMPDEST DUP2 SLOAD DUP2 MSTORE SWAP1 PUSH1 0x1 ADD SWAP1 PUSH1 0x20 ADD DUP1 DUP4 GT PUSH2 0x5CE JUMPI DUP3 SWAP1 SUB PUSH1 0x1F AND DUP3 ADD SWAP2 JUMPDEST POP POP POP POP POP DUP2 MSTORE PUSH1 0x20 ADD PUSH1 0x1 DUP3 ADD SLOAD DUP2 MSTORE PUSH1 0x20 ADD PUSH1 0x2 DUP3 ADD SLOAD DUP2 MSTORE POP POP SWAP1 POP SWAP2 SWAP1 POP JUMP JUMPDEST PUSH1 0x0 DUP1 SLOAD SWAP1 PUSH2 0x100 EXP SWAP1 DIV PUSH20 0xFFFFFFFFFFFFFFFFFFFFFFFFFFFFFFFFFFFFFFFF AND DUP2 JUMP JUMPDEST POP DUP1 SLOAD PUSH2 0x63F SWAP1 PUSH2 0xAEC JUMP JUMPDEST PUSH1 0x0 DUP3 SSTORE DUP1 PUSH1 0x1F LT PUSH2 0x651 JUMPI POP PUSH2 0x670 JUMP JUMPDEST PUSH1 0x1F ADD PUSH1 0x20 SWAP1 DIV SWAP1 PUSH1 0x0 MSTORE PUSH1 0x20 PUSH1 0x0 KECCAK256 SWAP1 DUP2 ADD SWAP1 PUSH2 0x66F SWAP2 SWAP1 PUSH2 0x694 JUMP JUMPDEST JUMPDEST POP JUMP JUMPDEST PUSH1 0x40 MLOAD DUP1 PUSH1 0x60 ADD PUSH1 0x40 MSTORE DUP1 PUSH1 0x60 DUP2 MSTORE PUSH1 0x20 ADD PUSH1 0x0 DUP2 MSTORE PUSH1 0x20 ADD PUSH1 0x0 DUP2 MSTORE POP SWAP1 JUMP JUMPDEST JUMPDEST DUP1 DUP3 GT ISZERO PUSH2 0x6AD JUMPI PUSH1 0x0 DUP2 PUSH1 0x0 SWAP1 SSTORE POP PUSH1 0x1 ADD PUSH2 0x695 JUMP JUMPDEST POP SWAP1 JUMP JUMPDEST PUSH1 0x0 PUSH1 0x40 MLOAD SWAP1 POP SWAP1 JUMP JUMPDEST PUSH1 0x0 DUP1 REVERT JUMPDEST PUSH1 0x0 DUP1 REVERT JUMPDEST PUSH1 0x0 DUP2 SWAP1 POP SWAP2 SWAP1 POP JUMP JUMPDEST PUSH2 0x6D8 DUP2 PUSH2 0x6C5 JUMP JUMPDEST DUP2 EQ PUSH2 0x6E3 JUMPI PUSH1 0x0 DUP1 REVERT JUMPDEST POP JUMP JUMPDEST PUSH1 0x0 DUP2 CALLDATALOAD SWAP1 POP PUSH2 0x6F5 DUP2 PUSH2 0x6CF JUMP JUMPDEST SWAP3 SWAP2 POP POP JUMP JUMPDEST PUSH1 0x0 PUSH1 0x20 DUP3 DUP5 SUB SLT ISZERO PUSH2 0x711 JUMPI PUSH2 0x710 PUSH2 0x6BB JUMP JUMPDEST JUMPDEST PUSH1 0x0 PUSH2 0x71F DUP5 DUP3 DUP6 ADD PUSH2 0x6E6 JUMP JUMPDEST SWAP2 POP POP SWAP3 SWAP2 POP POP JUMP JUMPDEST PUSH1 0x0 DUP2 MLOAD SWAP1 POP SWAP2 SWAP1 POP JUMP JUMPDEST PUSH1 0x0 DUP3 DUP3 MSTORE PUSH1 0x20 DUP3 ADD SWAP1 POP SWAP3 SWAP2 POP POP JUMP JUMPDEST PUSH1 0x0 JUMPDEST DUP4 DUP2 LT ISZERO PUSH2 0x762 JUMPI DUP1 DUP3 ADD MLOAD DUP2 DUP5 ADD MSTORE PUSH1 0x20 DUP2 ADD SWAP1 POP PUSH2 0x747 JUMP JUMPDEST PUSH1 0x0 DUP5 DUP5 ADD MSTORE POP POP POP POP JUMP JUMPDEST PUSH1 0x0 PUSH1 0x1F NOT PUSH1 0x1F DUP4 ADD AND SWAP1 POP SWAP2 SWAP1 POP JUMP JUMPDEST PUSH1 0x0 PUSH2 0x78A DUP3 PUSH2 0x728 JUMP JUMPDEST PUSH2 0x794 DUP2 DUP6 PUSH2 0x733 JUMP JUMPDEST SWAP4 POP PUSH2 0x7A4 DUP2 DUP6 PUSH1 0x20 DUP7 ADD PUSH2 0x744 JUMP JUMPDEST PUSH2 0x7AD DUP2 PUSH2 0x76E JUMP JUMPDEST DUP5 ADD SWAP2 POP POP SWAP3 SWAP2 POP POP JUMP JUMPDEST PUSH2 0x7C1 DUP2 PUSH2 0x6C5 JUMP JUMPDEST DUP3 MSTORE POP POP JUMP JUMPDEST PUSH1 0x0 PUSH1 0x60 DUP3 ADD SWAP1 POP DUP2 DUP2 SUB PUSH1 0x0 DUP4 ADD MSTORE PUSH2 0x7E1 DUP2 DUP7 PUSH2 0x77F JUMP JUMPDEST SWAP1 POP PUSH2 0x7F0 PUSH1 0x20 DUP4 ADD DUP6 PUSH2 0x7B8 JUMP JUMPDEST PUSH2 0x7FD PUSH1 0x40 DUP4 ADD DUP5 PUSH2 0x7B8 JUMP JUMPDEST SWAP5 SWAP4 POP POP POP POP JUMP JUMPDEST PUSH1 0x0 DUP1 REVERT JUMPDEST PUSH1 0x0 DUP1 REVERT JUMPDEST PUSH32 0x4E487B7100000000000000000000000000000000000000000000000000000000 PUSH1 0x0 MSTORE PUSH1 0x41 PUSH1 0x4 MSTORE PUSH1 0x24 PUSH1 0x0 REVERT JUMPDEST PUSH2 0x847 DUP3 PUSH2 0x76E JUMP JUMPDEST DUP2 ADD DUP2 DUP2 LT PUSH8 0xFFFFFFFFFFFFFFFF DUP3 GT OR ISZERO PUSH2 0x866 JUMPI PUSH2 0x865 PUSH2 0x80F JUMP JUMPDEST JUMPDEST DUP1 PUSH1 0x40 MSTORE POP POP POP JUMP JUMPDEST PUSH1 0x0 PUSH2 0x879 PUSH2 0x6B1 JUMP JUMPDEST SWAP1 POP PUSH2 0x885 DUP3 DUP3 PUSH2 0x83E JUMP JUMPDEST SWAP2 SWAP1 POP JUMP JUMPDEST PUSH1 0x0 PUSH8 0xFFFFFFFFFFFFFFFF DUP3 GT ISZERO PUSH2 0x8A5 JUMPI PUSH2 0x8A4 PUSH2 0x80F JUMP JUMPDEST JUMPDEST PUSH2 0x8AE DUP3 PUSH2 0x76E JUMP JUMPDEST SWAP1 POP PUSH1 0x20 DUP2 ADD SWAP1 POP SWAP2 SWAP1 POP JUMP JUMPDEST DUP3 DUP2 DUP4 CALLDATACOPY PUSH1 0x0 DUP4 DUP4 ADD MSTORE POP POP POP JUMP JUMPDEST PUSH1 0x0 PUSH2 0x8DD PUSH2 0x8D8 DUP5 PUSH2 0x88A JUMP JUMPDEST PUSH2 0x86F JUMP JUMPDEST SWAP1 POP DUP3 DUP2 MSTORE PUSH1 0x20 DUP2 ADD DUP5 DUP5 DUP5 ADD GT ISZERO PUSH2 0x8F9 JUMPI PUSH2 0x8F8 PUSH2 0x80A JUMP JUMPDEST JUMPDEST PUSH2 0x904 DUP5 DUP3 DUP6 PUSH2 0x8BB JUMP JUMPDEST POP SWAP4 SWAP3 POP POP POP JUMP JUMPDEST PUSH1 0x0 DUP3 PUSH1 0x1F DUP4 ADD SLT PUSH2 0x921 JUMPI PUSH2 0x920 PUSH2 0x805 JUMP JUMPDEST JUMPDEST DUP2 CALLDATALOAD PUSH2 0x931 DUP5 DUP3 PUSH1 0x20 DUP7 ADD PUSH2 0x8CA JUMP JUMPDEST SWAP2 POP POP SWAP3 SWAP2 POP POP JUMP JUMPDEST PUSH1 0x0 DUP1 PUSH1 0x40 DUP4 DUP6 SUB SLT ISZERO PUSH2 0x951 JUMPI PUSH2 0x950 PUSH2 0x6BB JUMP JUMPDEST JUMPDEST PUSH1 0x0 DUP4 ADD CALLDATALOAD PUSH8 0xFFFFFFFFFFFFFFFF DUP2 GT ISZERO PUSH2 0x96F JUMPI PUSH2 0x96E PUSH2 0x6C0 JUMP JUMPDEST JUMPDEST PUSH2 0x97B DUP6 DUP3 DUP7 ADD PUSH2 0x90C JUMP JUMPDEST SWAP3 POP POP PUSH1 0x20 PUSH2 0x98C DUP6 DUP3 DUP7 ADD PUSH2 0x6E6 JUMP JUMPDEST SWAP2 POP POP SWAP3 POP SWAP3 SWAP1 POP JUMP JUMPDEST PUSH1 0x0 DUP3 DUP3 MSTORE PUSH1 0x20 DUP3 ADD SWAP1 POP SWAP3 SWAP2 POP POP JUMP JUMPDEST PUSH1 0x0 PUSH2 0x9B2 DUP3 PUSH2 0x728 JUMP JUMPDEST PUSH2 0x9BC DUP2 DUP6 PUSH2 0x996 JUMP JUMPDEST SWAP4 POP PUSH2 0x9CC DUP2 DUP6 PUSH1 0x20 DUP7 ADD PUSH2 0x744 JUMP JUMPDEST PUSH2 0x9D5 DUP2 PUSH2 0x76E JUMP JUMPDEST DUP5 ADD SWAP2 POP POP SWAP3 SWAP2 POP POP JUMP JUMPDEST PUSH2 0x9E9 DUP2 PUSH2 0x6C5 JUMP JUMPDEST DUP3 MSTORE POP POP JUMP JUMPDEST PUSH1 0x0 PUSH1 0x60 DUP4 ADD PUSH1 0x0 DUP4 ADD MLOAD DUP5 DUP3 SUB PUSH1 0x0 DUP7 ADD MSTORE PUSH2 0xA0C DUP3 DUP3 PUSH2 0x9A7 JUMP JUMPDEST SWAP2 POP POP PUSH1 0x20 DUP4 ADD MLOAD PUSH2 0xA21 PUSH1 0x20 DUP7 ADD DUP3 PUSH2 0x9E0 JUMP JUMPDEST POP PUSH1 0x40 DUP4 ADD MLOAD PUSH2 0xA34 PUSH1 0x40 DUP7 ADD DUP3 PUSH2 0x9E0 JUMP JUMPDEST POP DUP1 SWAP2 POP POP SWAP3 SWAP2 POP POP JUMP JUMPDEST PUSH1 0x0 PUSH1 0x20 DUP3 ADD SWAP1 POP DUP2 DUP2 SUB PUSH1 0x0 DUP4 ADD MSTORE PUSH2 0xA59 DUP2 DUP5 PUSH2 0x9EF JUMP JUMPDEST SWAP1 POP SWAP3 SWAP2 POP POP JUMP JUMPDEST PUSH1 0x0 PUSH20 0xFFFFFFFFFFFFFFFFFFFFFFFFFFFFFFFFFFFFFFFF DUP3 AND SWAP1 POP SWAP2 SWAP1 POP JUMP JUMPDEST PUSH1 0x0 PUSH2 0xA8C DUP3 PUSH2 0xA61 JUMP JUMPDEST SWAP1 POP SWAP2 SWAP1 POP JUMP JUMPDEST PUSH2 0xA9C DUP2 PUSH2 0xA81 JUMP JUMPDEST DUP3 MSTORE POP POP JUMP JUMPDEST PUSH1 0x0 PUSH1 0x20 DUP3 ADD SWAP1 POP PUSH2 0xAB7 PUSH1 0x0 DUP4 ADD DUP5 PUSH2 0xA93 JUMP JUMPDEST SWAP3 SWAP2 POP POP JUMP JUMPDEST PUSH32 0x4E487B7100000000000000000000000000000000000000000000000000000000 PUSH1 0x0 MSTORE PUSH1 0x22 PUSH1 0x4 MSTORE PUSH1 0x24 PUSH1 0x0 REVERT JUMPDEST PUSH1 0x0 PUSH1 0x2 DUP3 DIV SWAP1 POP PUSH1 0x1 DUP3 AND DUP1 PUSH2 0xB04 JUMPI PUSH1 0x7F DUP3 AND SWAP2 POP JUMPDEST PUSH1 0x20 DUP3 LT DUP2 SUB PUSH2 0xB17 JUMPI PUSH2 0xB16 PUSH2 0xABD JUMP JUMPDEST JUMPDEST POP SWAP2 SWAP1 POP JUMP JUMPDEST PUSH32 0x4F6E6C792061646D696E2063616E20726567697374657220612073747564656E PUSH1 0x0 DUP3 ADD MSTORE PUSH32 0x7400000000000000000000000000000000000000000000000000000000000000 PUSH1 0x20 DUP3 ADD MSTORE POP JUMP JUMPDEST PUSH1 0x0 PUSH2 0xB79 PUSH1 0x21 DUP4 PUSH2 0x733 JUMP JUMPDEST SWAP2 POP PUSH2 0xB84 DUP3 PUSH2 0xB1D JUMP JUMPDEST PUSH1 0x40 DUP3 ADD SWAP1 POP SWAP2 SWAP1 POP JUMP JUMPDEST PUSH1 0x0 PUSH1 0x20 DUP3 ADD SWAP1 POP DUP2 DUP2 SUB PUSH1 0x0 DUP4 ADD MSTORE PUSH2 0xBA8 DUP2 PUSH2 0xB6C JUMP JUMPDEST SWAP1 POP SWAP2 SWAP1 POP JUMP JUMPDEST PUSH32 0x526F6C6C206E756D626572206D7573742062652067726561746572207468616E PUSH1 0x0 DUP3 ADD MSTORE PUSH32 0x2030000000000000000000000000000000000000000000000000000000000000 PUSH1 0x20 DUP3 ADD MSTORE POP JUMP JUMPDEST PUSH1 0x0 PUSH2 0xC0B PUSH1 0x22 DUP4 PUSH2 0x733 JUMP JUMPDEST SWAP2 POP PUSH2 0xC16 DUP3 PUSH2 0xBAF JUMP JUMPDEST PUSH1 0x40 DUP3 ADD SWAP1 POP SWAP2 SWAP1 POP JUMP JUMPDEST PUSH1 0x0 PUSH1 0x20 DUP3 ADD SWAP1 POP DUP2 DUP2 SUB PUSH1 0x0 DUP4 ADD MSTORE PUSH2 0xC3A DUP2 PUSH2 0xBFE JUMP JUMPDEST SWAP1 POP SWAP2 SWAP1 POP JUMP JUMPDEST PUSH32 0x53747564656E7420616C72656164792072656769737465726564000000000000 PUSH1 0x0 DUP3 ADD MSTORE POP JUMP JUMPDEST PUSH1 0x0 PUSH2 0xC77 PUSH1 0x1A DUP4 PUSH2 0x733 JUMP JUMPDEST SWAP2 POP PUSH2 0xC82 DUP3 PUSH2 0xC41 JUMP JUMPDEST PUSH1 0x20 DUP3 ADD SWAP1 POP SWAP2 SWAP1 POP JUMP JUMPDEST PUSH1 0x0 PUSH1 0x20 DUP3 ADD SWAP1 POP DUP2 DUP2 SUB PUSH1 0x0 DUP4 ADD MSTORE PUSH2 0xCA6 DUP2 PUSH2 0xC6A JUMP JUMPDEST SWAP1 POP SWAP2 SWAP1 POP JUMP JUMPDEST PUSH1 0x0 DUP2 SWAP1 POP DUP2 PUSH1 0x0 MSTORE PUSH1 0x20 PUSH1 0x0 KECCAK256 SWAP1 POP SWAP2 SWAP1 POP JUMP JUMPDEST PUSH1 0x0 PUSH1 0x20 PUSH1 0x1F DUP4 ADD DIV SWAP1 POP SWAP2 SWAP1 POP JUMP JUMPDEST PUSH1 0x0 DUP3 DUP3 SHL SWAP1 POP SWAP3 SWAP2 POP POP JUMP JUMPDEST PUSH1 0x0 PUSH1 0x8 DUP4 MUL PUSH2 0xD0F PUSH32 0xFFFFFFFFFFFFFFFFFFFFFFFFFFFFFFFFFFFFFFFFFFFFFFFFFFFFFFFFFFFFFFFF DUP3 PUSH2 0xCD2 JUMP JUMPDEST PUSH2 0xD19 DUP7 DUP4 PUSH2 0xCD2 JUMP JUMPDEST SWAP6 POP DUP1 NOT DUP5 AND SWAP4 POP DUP1 DUP7 AND DUP5 OR SWAP3 POP POP POP SWAP4 SWAP3 POP POP POP JUMP JUMPDEST PUSH1 0x0 DUP2 SWAP1 POP SWAP2 SWAP1 POP JUMP JUMPDEST PUSH1 0x0 PUSH2 0xD56 PUSH2 0xD51 PUSH2 0xD4C DUP5 PUSH2 0x6C5 JUMP JUMPDEST PUSH2 0xD31 JUMP JUMPDEST PUSH2 0x6C5 JUMP JUMPDEST SWAP1 POP SWAP2 SWAP1 POP JUMP JUMPDEST PUSH1 0x0 DUP2 SWAP1 POP SWAP2 SWAP1 POP JUMP JUMPDEST PUSH2 0xD70 DUP4 PUSH2 0xD3B JUMP JUMPDEST PUSH2 0xD84 PUSH2 0xD7C DUP3 PUSH2 0xD5D JUMP JUMPDEST DUP5 DUP5 SLOAD PUSH2 0xCDF JUMP JUMPDEST DUP3 SSTORE POP POP POP POP JUMP JUMPDEST PUSH1 0x0 SWAP1 JUMP JUMPDEST PUSH2 0xD99 PUSH2 0xD8C JUMP JUMPDEST PUSH2 0xDA4 DUP2 DUP5 DUP5 PUSH2 0xD67 JUMP JUMPDEST POP POP POP JUMP JUMPDEST JUMPDEST DUP2 DUP2 LT ISZERO PUSH2 0xDC8 JUMPI PUSH2 0xDBD PUSH1 0x0 DUP3 PUSH2 0xD91 JUMP JUMPDEST PUSH1 0x1 DUP2 ADD SWAP1 POP PUSH2 0xDAA JUMP JUMPDEST POP POP JUMP JUMPDEST PUSH1 0x1F DUP3 GT ISZERO PUSH2 0xE0D JUMPI PUSH2 0xDDE DUP2 PUSH2 0xCAD JUMP JUMPDEST PUSH2 0xDE7 DUP5 PUSH2 0xCC2 JUMP JUMPDEST DUP2 ADD PUSH1 0x20 DUP6 LT ISZERO PUSH2 0xDF6 JUMPI DUP2 SWAP1 POP JUMPDEST PUSH2 0xE0A PUSH2 0xE02 DUP6 PUSH2 0xCC2 JUMP JUMPDEST DUP4 ADD DUP3 PUSH2 0xDA9 JUMP JUMPDEST POP POP JUMPDEST POP POP POP JUMP JUMPDEST PUSH1 0x0 DUP3 DUP3 SHR SWAP1 POP SWAP3 SWAP2 POP POP JUMP JUMPDEST PUSH1 0x0 PUSH2 0xE30 PUSH1 0x0 NOT DUP5 PUSH1 0x8 MUL PUSH2 0xE12 JUMP JUMPDEST NOT DUP1 DUP4 AND SWAP2 POP POP SWAP3 SWAP2 POP POP JUMP JUMPDEST PUSH1 0x0 PUSH2 0xE49 DUP4 DUP4 PUSH2 0xE1F JUMP JUMPDEST SWAP2 POP DUP3 PUSH1 0x2 MUL DUP3 OR SWAP1 POP SWAP3 SWAP2 POP POP JUMP JUMPDEST PUSH2 0xE62 DUP3 PUSH2 0x728 JUMP JUMPDEST PUSH8 0xFFFFFFFFFFFFFFFF DUP2 GT ISZERO PUSH2 0xE7B JUMPI PUSH2 0xE7A PUSH2 0x80F JUMP JUMPDEST JUMPDEST PUSH2 0xE85 DUP3 SLOAD PUSH2 0xAEC JUMP JUMPDEST PUSH2 0xE90 DUP3 DUP3 DUP6 PUSH2 0xDCC JUMP JUMPDEST PUSH1 0x0 PUSH1 0x20 SWAP1 POP PUSH1 0x1F DUP4 GT PUSH1 0x1 DUP2 EQ PUSH2 0xEC3 JUMPI PUSH1 0x0 DUP5 ISZERO PUSH2 0xEB1 JUMPI DUP3 DUP8 ADD MLOAD SWAP1 POP JUMPDEST PUSH2 0xEBB DUP6 DUP3 PUSH2 0xE3D JUMP JUMPDEST DUP7 SSTORE POP PUSH2 0xF23 JUMP JUMPDEST PUSH1 0x1F NOT DUP5 AND PUSH2 0xED1 DUP7 PUSH2 0xCAD JUMP JUMPDEST PUSH1 0x0 JUMPDEST DUP3 DUP2 LT ISZERO PUSH2 0xEF9 JUMPI DUP5 DUP10 ADD MLOAD DUP3 SSTORE PUSH1 0x1 DUP3 ADD SWAP2 POP PUSH1 0x20 DUP6 ADD SWAP5 POP PUSH1 0x20 DUP2 ADD SWAP1 POP PUSH2 0xED4 JUMP JUMPDEST DUP7 DUP4 LT ISZERO PUSH2 0xF16 JUMPI DUP5 DUP10 ADD MLOAD PUSH2 0xF12 PUSH1 0x1F DUP10 AND DUP3 PUSH2 0xE1F JUMP JUMPDEST DUP4 SSTORE POP JUMPDEST PUSH1 0x1 PUSH1 0x2 DUP9 MUL ADD DUP9 SSTORE POP POP POP JUMPDEST POP POP POP POP POP POP JUMP JUMPDEST PUSH32 0x53747564656E74206E6F74207265676973746572656400000000000000000000 PUSH1 0x0 DUP3 ADD MSTORE POP JUMP JUMPDEST PUSH1 0x0 PUSH2 0xF61 PUSH1 0x16 DUP4 PUSH2 0x733 JUMP JUMPDEST SWAP2 POP PUSH2 0xF6C DUP3 PUSH2 0xF2B JUMP JUMPDEST PUSH1 0x20 DUP3 ADD SWAP1 POP SWAP2 SWAP1 POP JUMP JUMPDEST PUSH1 0x0 PUSH1 0x20 DUP3 ADD SWAP1 POP DUP2 DUP2 SUB PUSH1 0x0 DUP4 ADD MSTORE PUSH2 0xF90 DUP2 PUSH2 0xF54 JUMP JUMPDEST SWAP1 POP SWAP2 SWAP1 POP JUMP JUMPDEST PUSH1 0x0 PUSH1 0x20 DUP3 ADD SWAP1 POP PUSH2 0xFAC PUSH1 0x0 DUP4 ADD DUP5 PUSH2 0x7B8 JUMP JUMPDEST SWAP3 SWAP2 POP POP JUMP INVALID LOG2 PUSH5 0x6970667358 0x22 SLT KECCAK256 CALLDATALOAD BLOCKHASH 0x4D RETURN SWAP16 0xAC 0xB8 SHR 0xC0 NOT 0xD4 0xC5 PUSH16 0x38B0F8678A6920A97D545376689685C9 0x26 0xC2 PUSH17 0x64736F6C634300081C0033000000000000 "
        },
        "methodIdentifiers": {
          "admin()": "f851a440",
          "getStudentById(uint256)": "c8fb0793",
          "registerStudent(string,uint256)": "12a0b744",
          "removeStudent(uint256)": "6af83845",
          "students(uint256)": "06ead22e"
        }
      }
    }
  }
}